{
    "abi": [
        {
            "type": "constructor",
            "inputs": [
                {
                    "name": "_usdc",
                    "type": "address",
                    "internalType": "address"
                }
            ],
            "stateMutability": "nonpayable"
        },
        {
            "type": "function",
            "name": "BET_TYPEHASH",
            "inputs": [],
            "outputs": [
                {
                    "name": "",
                    "type": "bytes32",
                    "internalType": "bytes32"
                }
            ],
            "stateMutability": "view"
        },
        {
            "type": "function",
            "name": "PAYOUT_FEE_BP",
            "inputs": [],
            "outputs": [
                {
                    "name": "",
                    "type": "uint256",
                    "internalType": "uint256"
                }
            ],
            "stateMutability": "view"
        },
        {
            "type": "function",
            "name": "bets",
            "inputs": [
                {
                    "name": "betId",
                    "type": "uint256",
                    "internalType": "uint256"
                }
            ],
            "outputs": [
                {
                    "name": "id",
                    "type": "uint256",
                    "internalType": "uint256"
                },
                {
                    "name": "owner",
                    "type": "address",
                    "internalType": "address"
                },
                {
                    "name": "option",
                    "type": "uint256",
                    "internalType": "uint256"
                },
                {
                    "name": "amount",
                    "type": "uint256",
                    "internalType": "uint256"
                },
                {
                    "name": "poolId",
                    "type": "uint256",
                    "internalType": "uint256"
                },
                {
                    "name": "createdAt",
                    "type": "uint256",
                    "internalType": "uint256"
                },
                {
                    "name": "updatedAt",
                    "type": "uint256",
                    "internalType": "uint256"
                },
                {
                    "name": "isPayedOut",
                    "type": "bool",
                    "internalType": "bool"
                }
            ],
            "stateMutability": "view"
        },
        {
            "type": "function",
            "name": "claimPayouts",
            "inputs": [
                {
                    "name": "betIds",
                    "type": "uint256[]",
                    "internalType": "uint256[]"
                }
            ],
            "outputs": [],
            "stateMutability": "nonpayable"
        },
        {
            "type": "function",
            "name": "createPool",
            "inputs": [
                {
                    "name": "params",
                    "type": "tuple",
                    "internalType": "struct BettingPools.CreatePoolParams",
                    "components": [
                        {
                            "name": "question",
                            "type": "string",
                            "internalType": "string"
                        },
                        {
                            "name": "options",
                            "type": "string[2]",
                            "internalType": "string[2]"
                        },
                        {
                            "name": "betsCloseAt",
                            "type": "uint40",
                            "internalType": "uint40"
                        },
                        {
                            "name": "decisionDate",
                            "type": "uint40",
                            "internalType": "uint40"
                        },
                        {
                            "name": "imageUrl",
                            "type": "string",
                            "internalType": "string"
                        },
                        {
                            "name": "category",
                            "type": "string",
                            "internalType": "string"
                        },
                        {
                            "name": "creatorName",
                            "type": "string",
                            "internalType": "string"
                        },
                        {
                            "name": "creatorId",
                            "type": "string",
                            "internalType": "string"
                        },
                        {
                            "name": "closureCriteria",
                            "type": "string",
                            "internalType": "string"
                        },
                        {
                            "name": "closureInstructions",
                            "type": "string",
                            "internalType": "string"
                        }
                    ]
                }
            ],
            "outputs": [
                {
                    "name": "poolId",
                    "type": "uint256",
                    "internalType": "uint256"
                }
            ],
            "stateMutability": "nonpayable"
        },
        {
            "type": "function",
            "name": "gradeBet",
            "inputs": [
                {
                    "name": "poolId",
                    "type": "uint256",
                    "internalType": "uint256"
                },
                {
                    "name": "responseOption",
                    "type": "uint256",
                    "internalType": "uint256"
                }
            ],
            "outputs": [],
            "stateMutability": "nonpayable"
        },
        {
            "type": "function",
            "name": "nextBetId",
            "inputs": [],
            "outputs": [
                {
                    "name": "",
                    "type": "uint256",
                    "internalType": "uint256"
                }
            ],
            "stateMutability": "view"
        },
        {
            "type": "function",
            "name": "nextPoolId",
            "inputs": [],
            "outputs": [
                {
                    "name": "",
                    "type": "uint256",
                    "internalType": "uint256"
                }
            ],
            "stateMutability": "view"
        },
        {
            "type": "function",
            "name": "owner",
            "inputs": [],
            "outputs": [
                {
                    "name": "",
                    "type": "address",
                    "internalType": "address"
                }
            ],
            "stateMutability": "view"
        },
        {
            "type": "function",
            "name": "placeBet",
            "inputs": [
                {
                    "name": "poolId",
                    "type": "uint256",
                    "internalType": "uint256"
                },
                {
                    "name": "optionIndex",
                    "type": "uint256",
                    "internalType": "uint256"
                },
                {
                    "name": "amount",
                    "type": "uint256",
                    "internalType": "uint256"
                },
                {
                    "name": "bettor",
                    "type": "address",
                    "internalType": "address"
                },
                {
                    "name": "usdcPermitDeadline",
                    "type": "uint256",
                    "internalType": "uint256"
                },
                {
                    "name": "permitSignature",
                    "type": "tuple",
                    "internalType": "struct BettingPools.Signature",
                    "components": [
                        {
                            "name": "v",
                            "type": "uint8",
                            "internalType": "uint8"
                        },
                        {
                            "name": "r",
                            "type": "bytes32",
                            "internalType": "bytes32"
                        },
                        {
                            "name": "s",
                            "type": "bytes32",
                            "internalType": "bytes32"
                        }
                    ]
                }
            ],
            "outputs": [
                {
                    "name": "betId",
                    "type": "uint256",
                    "internalType": "uint256"
                }
            ],
            "stateMutability": "nonpayable"
        },
        {
            "type": "function",
            "name": "pools",
            "inputs": [
                {
                    "name": "poolId",
                    "type": "uint256",
                    "internalType": "uint256"
                }
            ],
            "outputs": [
                {
                    "name": "id",
                    "type": "uint256",
                    "internalType": "uint256"
                },
                {
                    "name": "question",
                    "type": "string",
                    "internalType": "string"
                },
                {
                    "name": "betsCloseAt",
                    "type": "uint40",
                    "internalType": "uint40"
                },
                {
                    "name": "decisionDate",
                    "type": "uint40",
                    "internalType": "uint40"
                },
                {
                    "name": "winningOption",
                    "type": "uint256",
                    "internalType": "uint256"
                },
                {
                    "name": "status",
                    "type": "uint8",
                    "internalType": "enum BettingPools.PoolStatus"
                },
                {
                    "name": "isDraw",
                    "type": "bool",
                    "internalType": "bool"
                },
                {
                    "name": "createdAt",
                    "type": "uint256",
                    "internalType": "uint256"
                },
                {
                    "name": "imageUrl",
                    "type": "string",
                    "internalType": "string"
                },
                {
                    "name": "category",
                    "type": "string",
                    "internalType": "string"
                },
                {
                    "name": "creatorName",
                    "type": "string",
                    "internalType": "string"
                },
                {
                    "name": "creatorId",
                    "type": "string",
                    "internalType": "string"
                },
                {
                    "name": "closureCriteria",
                    "type": "string",
                    "internalType": "string"
                },
                {
                    "name": "closureInstructions",
                    "type": "string",
                    "internalType": "string"
                },
                {
                    "name": "twitterPostId",
                    "type": "string",
                    "internalType": "string"
                }
            ],
            "stateMutability": "view"
        },
        {
            "type": "function",
            "name": "renounceOwnership",
            "inputs": [],
            "outputs": [],
            "stateMutability": "nonpayable"
        },
        {
            "type": "function",
            "name": "setTwitterPostId",
            "inputs": [
                {
                    "name": "poolId",
                    "type": "uint256",
                    "internalType": "uint256"
                },
                {
                    "name": "twitterPostId",
                    "type": "string",
                    "internalType": "string"
                }
            ],
            "outputs": [],
            "stateMutability": "nonpayable"
        },
        {
            "type": "function",
            "name": "transferOwnership",
            "inputs": [
                {
                    "name": "newOwner",
                    "type": "address",
                    "internalType": "address"
                }
            ],
            "outputs": [],
            "stateMutability": "nonpayable"
        },
        {
            "type": "function",
            "name": "userBets",
            "inputs": [
                {
                    "name": "bettor",
                    "type": "address",
                    "internalType": "address"
                },
                {
                    "name": "",
                    "type": "uint256",
                    "internalType": "uint256"
                }
            ],
            "outputs": [
                {
                    "name": "betIds",
                    "type": "uint256",
                    "internalType": "uint256"
                }
            ],
            "stateMutability": "view"
        },
        {
            "type": "event",
            "name": "BetPlaced",
            "inputs": [
                {
                    "name": "betId",
                    "type": "uint256",
                    "indexed": true,
                    "internalType": "uint256"
                },
                {
                    "name": "poolId",
                    "type": "uint256",
                    "indexed": true,
                    "internalType": "uint256"
                },
                {
                    "name": "user",
                    "type": "address",
                    "indexed": true,
                    "internalType": "address"
                },
                {
                    "name": "optionIndex",
                    "type": "uint256",
                    "indexed": false,
                    "internalType": "uint256"
                },
                {
                    "name": "amount",
                    "type": "uint256",
                    "indexed": false,
                    "internalType": "uint256"
                }
            ],
            "anonymous": false
        },
        {
            "type": "event",
            "name": "OwnershipTransferred",
            "inputs": [
                {
                    "name": "previousOwner",
                    "type": "address",
                    "indexed": true,
                    "internalType": "address"
                },
                {
                    "name": "newOwner",
                    "type": "address",
                    "indexed": true,
                    "internalType": "address"
                }
            ],
            "anonymous": false
        },
        {
            "type": "event",
            "name": "PayoutClaimed",
            "inputs": [
                {
                    "name": "betId",
                    "type": "uint256",
                    "indexed": true,
                    "internalType": "uint256"
                },
                {
                    "name": "poolId",
                    "type": "uint256",
                    "indexed": true,
                    "internalType": "uint256"
                },
                {
                    "name": "user",
                    "type": "address",
                    "indexed": true,
                    "internalType": "address"
                },
                {
                    "name": "amount",
                    "type": "uint256",
                    "indexed": false,
                    "internalType": "uint256"
                }
            ],
            "anonymous": false
        },
        {
            "type": "event",
            "name": "PoolClosed",
            "inputs": [
                {
                    "name": "poolId",
                    "type": "uint256",
                    "indexed": true,
                    "internalType": "uint256"
                },
                {
                    "name": "selectedOption",
                    "type": "uint256",
                    "indexed": false,
                    "internalType": "uint256"
                }
            ],
            "anonymous": false
        },
        {
            "type": "event",
            "name": "PoolCreated",
            "inputs": [
                {
                    "name": "poolId",
                    "type": "uint256",
                    "indexed": false,
                    "internalType": "uint256"
                },
                {
                    "name": "params",
                    "type": "tuple",
                    "indexed": false,
                    "internalType": "struct BettingPools.CreatePoolParams",
                    "components": [
                        {
                            "name": "question",
                            "type": "string",
                            "internalType": "string"
                        },
                        {
                            "name": "options",
                            "type": "string[2]",
                            "internalType": "string[2]"
                        },
                        {
                            "name": "betsCloseAt",
                            "type": "uint40",
                            "internalType": "uint40"
                        },
                        {
                            "name": "decisionDate",
                            "type": "uint40",
                            "internalType": "uint40"
                        },
                        {
                            "name": "imageUrl",
                            "type": "string",
                            "internalType": "string"
                        },
                        {
                            "name": "category",
                            "type": "string",
                            "internalType": "string"
                        },
                        {
                            "name": "creatorName",
                            "type": "string",
                            "internalType": "string"
                        },
                        {
                            "name": "creatorId",
                            "type": "string",
                            "internalType": "string"
                        },
                        {
                            "name": "closureCriteria",
                            "type": "string",
                            "internalType": "string"
                        },
                        {
                            "name": "closureInstructions",
                            "type": "string",
                            "internalType": "string"
                        }
                    ]
                }
            ],
            "anonymous": false
        },
        {
            "type": "event",
            "name": "TwitterPostIdSet",
            "inputs": [
                {
                    "name": "poolId",
                    "type": "uint256",
                    "indexed": true,
                    "internalType": "uint256"
                },
                {
                    "name": "twitterPostId",
                    "type": "string",
                    "indexed": false,
                    "internalType": "string"
                }
            ],
            "anonymous": false
        },
        {
            "type": "error",
            "name": "BetAlreadyExists",
            "inputs": []
        },
        {
            "type": "error",
            "name": "BetAlreadyPaidOut",
            "inputs": []
        },
        {
            "type": "error",
            "name": "BetsCloseAfterDecision",
            "inputs": []
        },
        {
            "type": "error",
            "name": "BetsCloseTimeInPast",
            "inputs": []
        },
        {
            "type": "error",
            "name": "BettingPeriodClosed",
            "inputs": []
        },
        {
            "type": "error",
            "name": "BettingPeriodNotClosed",
            "inputs": []
        },
        {
            "type": "error",
            "name": "DecisionDateNotReached",
            "inputs": []
        },
        {
            "type": "error",
            "name": "GradingError",
            "inputs": []
        },
        {
            "type": "error",
            "name": "InsufficientBalance",
            "inputs": []
        },
        {
            "type": "error",
            "name": "InvalidOptionIndex",
            "inputs": []
        },
        {
            "type": "error",
            "name": "NoBetToCancel",
            "inputs": []
        },
        {
            "type": "error",
            "name": "NotBetOwner",
            "inputs": []
        },
        {
            "type": "error",
            "name": "OwnableInvalidOwner",
            "inputs": [
                {
                    "name": "owner",
                    "type": "address",
                    "internalType": "address"
                }
            ]
        },
        {
            "type": "error",
            "name": "OwnableUnauthorizedAccount",
            "inputs": [
                {
                    "name": "account",
                    "type": "address",
                    "internalType": "address"
                }
            ]
        },
        {
            "type": "error",
            "name": "PoolAlreadyClosed",
            "inputs": []
        },
        {
            "type": "error",
            "name": "PoolDoesntExist",
            "inputs": []
        },
        {
            "type": "error",
            "name": "PoolNotGraded",
            "inputs": []
        },
        {
            "type": "error",
            "name": "PoolNotOpen",
            "inputs": []
        },
        {
            "type": "error",
            "name": "USDCRefundFailed",
            "inputs": []
        },
        {
            "type": "error",
            "name": "USDCTransferFailed",
            "inputs": []
        },
        {
            "type": "error",
            "name": "ZeroAmount",
            "inputs": []
        }
    ],
    "bytecode": {
        "object": "0x60806040523461002f576100196100146100f4565b6101f6565b610021610034565b6134b661039c82396134b690f35b61003a565b60405190565b5f80fd5b601f801991011690565b634e487b7160e01b5f52604160045260245ffd5b906100669061003e565b810190811060018060401b0382111761007e57604052565b610048565b9061009661008f610034565b928361005c565b565b5f80fd5b60018060a01b031690565b6100b09061009c565b90565b6100bc816100a7565b036100c357565b5f80fd5b905051906100d4826100b3565b565b906020828203126100ef576100ec915f016100c7565b90565b610098565b6101126138528038038061010781610083565b9283398101906100d6565b90565b5f1b90565b906101265f1991610115565b9181191691161790565b90565b90565b90565b61014d61014861015292610130565b610136565b610133565b90565b90565b9061016d61016861017492610139565b610155565b825461011a565b9055565b61018c6101876101919261009c565b610136565b61009c565b90565b61019d90610178565b90565b6101a990610194565b90565b906101bd60018060a01b0391610115565b9181191691161790565b6101d090610194565b90565b90565b906101eb6101e66101f2926101c7565b6101d3565b82546101ac565b9055565b61022361022a9161020633610279565b61021260016002610158565b61021e60016003610158565b6101a0565b60016101d6565b565b90565b61024361023e6102489261022c565b610136565b61009c565b90565b6102549061022f565b90565b610260906100a7565b9052565b9190610277905f60208501940190610257565b565b8061029461028e6102895f61024b565b6100a7565b916100a7565b146102a4576102a29061033c565b565b6102c76102b05f61024b565b5f918291631e4fbdf760e01b835260048301610264565b0390fd5b5f1c90565b60018060a01b031690565b6102e76102ec916102cb565b6102d0565b90565b6102f990546102db565b90565b61030590610178565b90565b610311906102fc565b90565b90565b9061032c61032761033392610308565b610314565b82546101ac565b9055565b5f0190565b6103455f6102ef565b61034f825f610317565b9061038361037d7f8be0079c531659141344cd1fd0a4f28419497f9722a3daafe3b4186f6b6457e093610308565b91610308565b9161038c610034565b8061039681610337565b0390a356fe60806040526004361015610013575b610f4b565b61001d5f3561010c565b806318e561311461010757806322af00fa146101025780633d695c52146100fd5780634d20d4bc146100f8578063715018a6146100f35780638068aa68146100ee5780638da5cb5b146100e95780639aca2792146100e45780639d5d2513146100df578063ac4afa38146100da578063bbd5e559146100d5578063be3f4ff2146100d0578063e4747eb1146100cb578063f2fde38b146100c65763ff0beb620361000e57610f17565b610eb7565b610e5d565b610db0565b610d45565b610c74565b6107b8565b610736565b6106f2565b6106a7565b61055c565b610527565b61049f565b6103da565b610190565b60e01c90565b60405190565b5f80fd5b5f80fd5b5f91031261012a57565b61011c565b1c90565b90565b61014690600861014b930261012f565b610133565b90565b906101599154610136565b90565b61016860025f9061014e565b90565b90565b6101779061016b565b9052565b919061018e905f6020850194019061016e565b565b346101c0576101a0366004610120565b6101bc6101ab61015c565b6101b3610112565b9182918261017b565b0390f35b610118565b5f80fd5b6101d28161016b565b036101d957565b5f80fd5b905035906101ea826101c9565b565b9060208282031261020557610202915f016101dd565b90565b61011c565b90565b61022161021c6102269261016b565b61020a565b61016b565b90565b906102339061020d565b5f5260205260405f2090565b5f1c90565b6102506102559161023f565b610133565b90565b6102629054610244565b90565b60018060a01b031690565b61027c6102819161023f565b610265565b90565b61028e9054610270565b90565b60ff1690565b6102a36102a89161023f565b610291565b90565b6102b59054610297565b90565b6102c3906005610229565b906102cf5f8301610258565b916102dc60018201610284565b916102e960028301610258565b916102f660038201610258565b9161030360048301610258565b9161031060058201610258565b91610329600761032260068501610258565b93016102ab565b90565b60018060a01b031690565b6103409061032c565b90565b61034c90610337565b9052565b151590565b61035e90610350565b9052565b959391989796949290986101008701995f880161037e9161016e565b6020870161038b91610343565b604086016103989161016e565b606085016103a59161016e565b608084016103b29161016e565b60a083016103bf9161016e565b60c082016103cc9161016e565b60e0016103d891610355565b565b34610414576104106103f56103f03660046101ec565b6102b8565b94610407989698949194939293610112565b98899889610362565b0390f35b610118565b5f80fd5b5f80fd5b5f80fd5b909182601f8301121561045f5781359167ffffffffffffffff831161045a57602001926020830284011161045557565b610421565b61041d565b610419565b90602082820312610495575f82013567ffffffffffffffff81116104905761048c9201610425565b9091565b6101c5565b61011c565b5f0190565b346104ce576104b86104b2366004610464565b90611219565b6104c0610112565b806104ca8161049a565b0390f35b610118565b7f8c16348217fdc3708b3f70bfe9e5f7974f50353ba8463786998667200b724bcd90565b6104ff6104d3565b90565b90565b61050e90610502565b9052565b9190610525905f60208501940190610505565b565b3461055757610537366004610120565b6105536105426104f7565b61054a610112565b91829182610512565b0390f35b610118565b3461058a5761056c366004610120565b6105746117ce565b61057c610112565b806105868161049a565b0390f35b610118565b61059881610337565b0361059f57565b5f80fd5b905035906105b08261058f565b565b91906040838203126105da57806105ce6105d7925f86016105a3565b936020016101dd565b90565b61011c565b6105f36105ee6105f89261032c565b61020a565b61032c565b90565b610604906105df565b90565b610610906105fb565b90565b9061061d90610607565b5f5260205260405f2090565b634e487b7160e01b5f52603260045260245ffd5b5490565b5f5260205f2090565b6106538161063d565b82101561066d57610665600191610641565b910201905f90565b610629565b61067d906006610613565b6106868161063d565b8210156106a3576106a09161069a9161064a565b9061014e565b90565b5f80fd5b346106d8576106d46106c36106bd3660046105b2565b90610672565b6106cb610112565b9182918261017b565b0390f35b610118565b91906106f0905f60208501940190610343565b565b3461072257610702366004610120565b61071e61070d6117dc565b610715610112565b918291826106dd565b0390f35b610118565b61073360035f9061014e565b90565b3461076657610746366004610120565b610762610751610727565b610759610112565b9182918261017b565b0390f35b610118565b5f80fd5b908161014091031261077e5790565b61076b565b906020828203126107b3575f82013567ffffffffffffffff81116107ae576107ab920161076f565b90565b6101c5565b61011c565b346107e8576107e46107d36107ce366004610783565b61270f565b6107db610112565b9182918261017b565b0390f35b610118565b906107f79061020d565b5f5260205260405f2090565b634e487b7160e01b5f52602260045260245ffd5b9060016002830492168015610837575b602083101461083257565b610803565b91607f1691610827565b60209181520190565b5f5260205f2090565b905f929180549061086d61086683610817565b8094610841565b916001811690815f146108c45750600114610888575b505050565b610895919293945061084a565b915f925b8184106108ac57505001905f8080610883565b60018160209295939554848601520191019290610899565b92949550505060ff19168252151560200201905f8080610883565b906108e991610853565b90565b601f801991011690565b634e487b7160e01b5f52604160045260245ffd5b90610914906108ec565b810190811067ffffffffffffffff82111761092e57604052565b6108f6565b9061095361094c92610943610112565b938480926108df565b038361090a565b565b64ffffffffff1690565b61096b6109709161023f565b610955565b90565b61097d905461095f565b90565b60281c90565b61099261099791610980565b610955565b90565b6109a49054610986565b90565b60ff1690565b6109b96109be9161023f565b6109a7565b90565b6109cb90546109ad565b90565b60081c90565b6109e06109e5916109ce565b610291565b90565b6109f290546109d4565b90565b610a009060046107ed565b610a0b5f8201610258565b91610a1860018301610933565b91610a2560048201610973565b91610a326004830161099a565b91610a3f60098201610258565b91610a4c600a83016109c1565b91610a59600a82016109e8565b91610a66600b8301610258565b91610a73600c8201610933565b91610a80600d8301610933565b91610a8d600e8201610933565b91610a9a600f8301610933565b91610aa760108201610933565b91610ac06012610ab960118501610933565b9301610933565b90565b5190565b60209181520190565b90825f9392825e0152565b610afa610b03602093610b0893610af181610ac3565b93848093610ac7565b95869101610ad0565b6108ec565b0190565b64ffffffffff1690565b610b1f90610b0c565b9052565b634e487b7160e01b5f52602160045260245ffd5b60041115610b4157565b610b23565b90610b5082610b37565b565b610b5b90610b46565b90565b610b6790610b52565b9052565b9d9a9498610c719f9d998f90610c449a610c629f9a610bfe90610c539f9896610c359c610bea610c0896610be0610c269e610bd6610bcb610c169f97610bf4988e610bbe6101e08201935f83019061016e565b6020818403910152610adb565b9d60408d0190610b16565b60608b0190610b16565b608089019061016e565b60a0870190610b5e565b60c0850190610355565b60e083019061016e565b610100818403910152610adb565b908c610120818403910152610adb565b908a82036101408c0152610adb565b908882036101608a0152610adb565b90868203610180880152610adb565b908482036101a0860152610adb565b916101c0818403910152610adb565b90565b34610cbb5736610c859060046101ec565b610c8e906109f5565b9a610ca99e9c9e9a919a999299989398979497969596610112565b9e8f9e8f9e610cb79f610b6b565b0390f35b610118565b909182601f83011215610cfa5781359167ffffffffffffffff8311610cf5576020019260018302840111610cf057565b610421565b61041d565b610419565b919091604081840312610d4057610d18835f83016101dd565b92602082013567ffffffffffffffff8111610d3b57610d379201610cc0565b9091565b6101c5565b61011c565b34610d7457610d5e610d58366004610cff565b9161281f565b610d66610112565b80610d708161049a565b0390f35b610118565b90565b610d90610d8b610d9592610d79565b61020a565b61016b565b90565b610da2605a610d7c565b90565b610dad610d98565b90565b34610de057610dc0366004610120565b610ddc610dcb610da5565b610dd3610112565b9182918261017b565b0390f35b610118565b90816060910312610df35790565b61076b565b909161010082840312610e5857610e11835f84016101dd565b92610e1f81602085016101dd565b92610e2d82604083016101dd565b92610e55610e3e84606085016105a3565b93610e4c81608086016101dd565b9360a001610de5565b90565b61011c565b34610e9457610e90610e7f610e73366004610df8565b94939093929192612bb8565b610e87610112565b9182918261017b565b0390f35b610118565b90602082820312610eb257610eaf915f016105a3565b90565b61011c565b34610ee557610ecf610eca366004610e99565b613187565b610ed7610112565b80610ee18161049a565b0390f35b610118565b9190604083820312610f125780610f06610f0f925f86016101dd565b936020016101dd565b90565b61011c565b34610f4657610f30610f2a366004610eea565b906133ba565b610f38610112565b80610f428161049a565b0390f35b610118565b5f80fd5b90565b610f66610f61610f6b92610f4f565b61020a565b61016b565b90565b6001610f7a910161016b565b90565b5090565b9190811015610f91576020020190565b610629565b35610fa0816101c9565b90565b5f1b90565b90610fb460ff91610fa3565b9181191691161790565b610fc790610350565b90565b90565b90610fe2610fdd610fe992610fbe565b610fca565b8254610fa8565b9055565b50600290565b90565b610fff81610fed565b82101561101957611011600191610ff3565b910201905f90565b610629565b60018060a01b031690565b61103561103a9161023f565b61101e565b90565b6110479054611029565b90565b611053906105fb565b90565b5f80fd5b60e01b90565b61106981610350565b0361107057565b5f80fd5b9050519061108182611060565b565b9060208282031261109c57611099915f01611074565b90565b61011c565b9160206110c29294936110bb60408201965f830190610343565b019061016e565b565b6110cc610112565b3d5f823e3d90fd5b60ff1690565b6110ee6110e96110f392610f4f565b61020a565b6110d4565b90565b90565b61110d611108611112926110f6565b61020a565b6110d4565b90565b61112961112461112e926110d4565b61020a565b61016b565b90565b634e487b7160e01b5f52601160045260245ffd5b61115461115a9193929361016b565b9261016b565b9161116683820261016b565b92818404149015171561117557565b611131565b634e487b7160e01b5f52601260045260245ffd5b61119a6111a09161016b565b9161016b565b9081156111ab570490565b61117a565b6111bf6111c59193929361016b565b9261016b565b82018092116111d057565b611131565b90565b6111ec6111e76111f1926111d5565b61020a565b61016b565b90565b6112036112099193929361016b565b9261016b565b820391821161121457565b611131565b6112225f610f52565b5b8061124061123a611235858790610f7d565b61016b565b9161016b565b101561177c5761125a61125583858491610f81565b610f96565b90611288600a611282600461127c600461127660058990610229565b01610258565b906107ed565b016109c1565b61129b6112956002610b46565b91610b46565b03611772576112b760076112b160058590610229565b016102ab565b611768576112d4600160076112ce60058690610229565b01610fcd565b6112eb60046112e560058590610229565b01610258565b611302600a6112fc600484906107ed565b016109e8565b801561172d575b80156116f1575b6116365761132b6009611325600484906107ed565b01610258565b61133d6113375f610f52565b9161016b565b145f146116255761135761135160016110f9565b5b611115565b61136e600261136860058790610229565b01610258565b61139661139061138b6009611385600488906107ed565b01610258565b61016b565b9161016b565b146113ae575b50506113a991505b610f6e565b611223565b6114346113f6611451926113f06113ea6113d560036113cf60058c90610229565b01610258565b9260056113e460048a906107ed565b01610ff6565b9061014e565b90611145565b61142e611428600561140a600488906107ed565b01611422600961141c60048a906107ed565b01610258565b90610ff6565b9061014e565b9061118e565b61144b600361144560058890610229565b01610258565b906111b0565b9261148361147b61146a86611464610d98565b90611145565b6114756127106111d8565b9061118e565b9485906111f4565b90611496611491600161103d565b61104a565b602063a9059cbb916114b560016114af60058790610229565b01610284565b906114d35f87956114de6114c7610112565b9788968795869461105a565b8452600484016110a1565b03925af18015611620576115f4575b5060206115026114fd600161103d565b61104a565b9563a9059cbb9661152e5f6115156117dc565b9399611539611522610112565b9b8c968795869461105a565b8452600484016110a1565b03925af19485156115ef576113a9956115c3575b5061156660016115608395936005610229565b01610284565b91926115b96115a76115a161159b7fd1f3861ffbea97daddf24a627ee1ba296c1b79f85872d0168b3130bc5d30e1d99461020d565b9461020d565b94610607565b946115b0610112565b9182918261017b565b0390a45f8061139c565b6115e39060203d81116115e8575b6115db818361090a565b810190611083565b61154d565b503d6115d1565b6110c4565b6116149060203d8111611619575b61160c818361090a565b810190611083565b6114ed565b503d611602565b6110c4565b6113576116315f6110da565b611352565b50602061164b611646600161103d565b61104a565b9263a9059cbb9361169b5f611683600361167d611675600161166f60058a90610229565b01610284565b966005610229565b01610258565b966116a661168f610112565b9889968795869461105a565b8452600484016110a1565b03925af19182156116ec576113a9926116c0575b506113a4565b6116e09060203d81116116e5575b6116d8818361090a565b810190611083565b6116ba565b503d6116ce565b6110c4565b5061171561170f6005611706600485906107ed565b01600190610ff6565b9061014e565b6117276117215f610f52565b9161016b565b14611310565b5061175061174a6005611742600485906107ed565b015f90610ff6565b9061014e565b61176261175c5f610f52565b9161016b565b14611309565b6113a991506113a4565b6113a991506113a4565b505050565b6117896133c6565b6117916117bb565b565b6117a76117a26117ac92610f4f565b61020a565b61032c565b90565b6117b890611793565b90565b6117cc6117c75f6117af565b613414565b565b6117d6611781565b565b5f90565b6117e46117d8565b506117ee5f610284565b90565b5f90565b90611807916118026133c6565b612464565b90565b61181381610b0c565b0361181a57565b5f80fd5b356118288161180a565b90565b61183f61183a61184492610b0c565b61020a565b61016b565b90565b6118509061016b565b5f19811461185e5760010190565b611131565b9061186f5f1991610fa3565b9181191691161790565b90565b9061189161188c6118989261020d565b611879565b8254611863565b9055565b90565b5f80fd5b5f80fd5b5f80fd5b9035906001602003813603038212156118ed570180359067ffffffffffffffff82116118e8576020019160018202360383136118e357565b6118a7565b6118a3565b61189f565b634e487b7160e01b5f525f60045260245ffd5b5090565b601f602091010490565b1b90565b9190600861193291029161192c5f1984611913565b92611913565b9181191691161790565b919061195261194d61195a9361020d565b611879565b908354611917565b9055565b6119709161196a6117f1565b9161193c565b565b5b81811061197e575050565b8061198b5f60019361195e565b01611973565b9190601f81116119a1575b505050565b6119ad6119d29361084a565b9060206119b984611909565b830193106119da575b6119cb90611909565b0190611972565b5f808061199c565b91506119cb819290506119c2565b906119f8905f199060080261012f565b191690565b81611a07916119e8565b906002021790565b91611a1a9082611905565b9067ffffffffffffffff8211611ad957611a3e82611a388554610817565b85611991565b5f90601f8311600114611a7157918091611a60935f92611a65575b50506119fd565b90555b565b90915001355f80611a59565b601f19831691611a808561084a565b925f5b818110611ac157509160029391856001969410611aa7575b50505002019055611a63565b611ab7910135601f8416906119e8565b90555f8080611a9b565b91936020600181928787013581550195019201611a83565b6108f6565b90611ae99291611a0f565b565b903590600160400381360303821215611b02570190565b61189f565b90565b50600290565b600190818003010490565b90565b90611b31905f199060200360080261012f565b8154169055565b905f91611b4f611b478261084a565b9283546119fd565b905555565b919290602082105f14611bad57601f8411600114611b7d57611b779293506119fd565b90555b5b565b5090611ba3611ba8936001611b9a611b948561084a565b92611909565b82019101611972565b611b38565b611b7a565b50611be48293611bbe60019461084a565b611bdd611bca85611909565b820192601f861680611bef575b50611909565b0190611972565b600202179055611b7b565b611bfb90888603611b1e565b5f611bd7565b929091680100000000000000008211611c61576020115f14611c5257602081105f14611c3657611c30916119fd565b90555b5b565b60019160ff1916611c468461084a565b55600202019055611c33565b60019150600202019055611c34565b6108f6565b908154611c7281610817565b90818311611c9b575b818310611c89575b50505050565b611c9293611b54565b5f808080611c83565b611ca783838387611c01565b611c7b565b5b818110611cb8575050565b80611cc55f60019361195e565b01611cad565b5f611cd591611c66565b565b905f03611ce957611ce790611ccb565b565b6118f2565b5b818110611cfa575050565b80611d075f600193611cd7565b01611cef565b9091828110611d1c575b505050565b611d3a611d34611d2e611d4595611b10565b92611b10565b92611b1b565b918201910190611cee565b5f8080611d17565b90680100000000000000008111611d735781611d6b611d7193611b0a565b90611d0d565b565b6108f6565b50600290565b611d8782611d78565b91611d928383611d4d565b611da4611d9e82611b07565b92611b1b565b905f925b848410611db6575050505050565b6001602082611dd0611dc98495876118ab565b9088611ade565b01930193019291611da8565b90611de691611d7e565b565b90611df864ffffffffff91610fa3565b9181191691161790565b611e16611e11611e1b92610b0c565b61020a565b610b0c565b90565b90565b90611e36611e31611e3d92611e02565b611e1e565b8254611de8565b9055565b60281b90565b90611e5c69ffffffffff000000000091611e41565b9181191691161790565b90611e7b611e76611e8292611e02565b611e1e565b8254611e47565b9055565b90611e99611e92610112565b928361090a565b565b67ffffffffffffffff8111611eb05760200290565b6108f6565b611ec1611ec691611e9b565b611e86565b90565b90611ed3906110d4565b9052565b600190818003010490565b9091828110611ef1575b505050565b611f0f611f09611f03611f1a95611ed7565b92611ed7565b92610ff3565b918201910190611cac565b5f8080611eec565b90680100000000000000008111611f485781611f40611f4693610fed565b90611ee2565b565b6108f6565b50600290565b611f5d90516110d4565b90565b90565b611f6c82611f4d565b9167ffffffffffffffff8311611fcf57611f9a611f94600192611f8f8686611f22565b611f60565b92610ff3565b9204915f5b838110611fac5750505050565b6001906020611fc2611fbd86611f53565b611879565b9401938184015501611f9f565b6108f6565b90611fde91611f63565b565b67ffffffffffffffff8111611ff85760208091020190565b6108f6565b9061200f61200a83611fe0565b611e86565b918252565b369037565b9061203e61202683611ffd565b926020806120348693611fe0565b9201910390612014565b565b600190818003010490565b909182811061205a575b505050565b61207861207261206c61208395612040565b92612040565b92610641565b918201910190611cac565b5f8080612055565b906801000000000000000081116120b457816120a96120b29361063d565b9082815561204b565b565b6108f6565b5190565b6120c7905161016b565b90565b60200190565b6120d9826120b9565b9167ffffffffffffffff831161213c576121076121016001926120fc868661208b565b6120ca565b92610641565b9204915f5b8381106121195750505050565b600190602061212f61212a866120bd565b611879565b940193818401550161210c565b6108f6565b9061214b916120d0565b565b61215690610b46565b90565b90565b9061217161216c6121789261214d565b612159565b8254610fa8565b9055565b60081b90565b9061218f61ff009161217c565b9181191691161790565b906121ae6121a96121b592610fbe565b610fca565b8254612182565b9055565b5f80fd5b5f80fd5b5f80fd5b903560016020038236030381121561220657016020813591019167ffffffffffffffff82116122015760018202360383136121fc57565b6121bd565b6121b9565b6121c1565b90825f939282370152565b9190612230816122298161223595610841565b809561220b565b6108ec565b0190565b903560016040038236030381121561224f570190565b6121c1565b905090565b906122649291612216565b90565b60200190565b9061228161227a83611d78565b8092612254565b908161229260208302840194611b07565b92835f925b8484106122a75750505050505090565b90919293949560206122d36122cd83856001950388526122c78b886121c5565b90612259565b98612267565b940194019294939190612297565b905035906122ee8261180a565b565b506122ff9060208101906122e1565b90565b61230b90610b0c565b9052565b61243b9161242c6124206124036123e86123cd6123b2612363612349610140890161233c5f8c018c6121c5565b908b83035f8d0152612216565b61235660208b018b612239565b89820360208b015261226d565b61237d61237360408b018b6122f0565b60408a0190612302565b61239761238d60608b018b6122f0565b60608a0190612302565b6123a460808a018a6121c5565b9089830360808b0152612216565b6123bf60a08901896121c5565b9088830360a08a0152612216565b6123da60c08801886121c5565b9087830360c0890152612216565b6123f560e08701876121c5565b9086830360e0880152612216565b6124116101008601866121c5565b90858303610100870152612216565b926101208101906121c5565b91610120818503910152612216565b90565b916124619261245460408201935f83019061016e565b602081840391015261230f565b90565b919091506124746040830161181e565b6124866124804261016b565b9161182b565b11156126f3576124986040830161181e565b6124b56124af6124aa6060860161181e565b610b0c565b91610b0c565b116126d7576124c46002610258565b6124d76124d082611847565b600261187c565b9161269a60116124f16124ec600487906107ed565b61189c565b6124fd865f830161187c565b61251761250d855f8101906118ab565b9060018401611ade565b612531612528856020810190611aeb565b60028301611ddc565b6125496125406040860161181e565b60048301611e21565b6125616125586060860161181e565b60048301611e66565b6125a061256e6002611eb5565b61258261257a5f6110da565b5f8301611ec9565b61259761258e5f6110da565b60208301611ec9565b60058301611fd4565b6125bd6125b46125af5f610f52565b612019565b60078301612141565b6125d26125c95f610f52565b6009830161187c565b6125e06001600a830161215c565b6125ed5f600a8301612199565b6125fa42600b830161187c565b61261561260b8560808101906118ab565b90600c8401611ade565b6126306126268560a08101906118ab565b90600d8401611ade565b61264b6126418560c08101906118ab565b90600e8401611ade565b61266661265c8560e08101906118ab565b90600f8401611ade565b612682612678856101008101906118ab565b9060108401611ade565b612691846101208101906118ab565b92909101611ade565b82907f2c7353e009247eeaaa12f42d35758b0bd56613cb62b841c7947ee7efa3d910bf916126d26126c9610112565b9283928361243e565b0390a1565b5f6334451b1f60e11b8152806126ef6004820161049a565b0390fd5b5f634cd39bcd60e01b81528061270b6004820161049a565b0390fd5b6127209061271b6117f1565b6117f5565b90565b9061273692916127316133c6565b612775565b565b91906127528161274b8161275795610ac7565b809561220b565b6108ec565b0190565b90916127729260208301925f818503910152612738565b90565b61278c600a612786600484906107ed565b016109c1565b61279e6127985f610b46565b91610b46565b14612803576127bd82849060126127b7600486906107ed565b01611ade565b90916127e97ffcddd10deba80e9899c8a59c2be302afc71de9152cf2525dd95ce7833a6de1b79261020d565b926127fe6127f5610112565b9283928361275b565b0390a2565b5f63215db33160e01b81528061281b6004820161049a565b0390fd5b9061282a9291612723565b565b90565b61284361283e6128489261282c565b61020a565b61016b565b90565b90505190612858826101c9565b565b9060208282031261287357612870915f0161284b565b90565b61011c565b612881906105fb565b90565b61288d816110d4565b0361289457565b5f80fd5b356128a281612884565b90565b6128ae81610502565b036128b557565b5f80fd5b356128c3816128a5565b90565b5f9103126128d057565b61011c565b6128de906110d4565b9052565b949290979695939160e08601985f87016128fb91610343565b6020860161290891610343565b604085016129159161016e565b606084016129229161016e565b6080830161292f916128d5565b60a0820161293c91610505565b60c00161294891610505565b565b60409061297361297a949695939661296960608401985f850190610343565b6020830190610343565b019061016e565b565b9061298690610607565b5f5260205260405f2090565b50600290565b90565b6129a481612992565b8210156129be576129b6600891612998565b910201905f90565b610629565b6129ce610100611e86565b90565b906129db9061016b565b9052565b906129e990610337565b9052565b906129f790610350565b9052565b612a059051610337565b90565b90612a1960018060a01b0391610fa3565b9181191691161790565b90565b90612a3b612a36612a4292610607565b612a23565b8254612a08565b9055565b612a509051610350565b90565b90612b1460e06007612b1a94612a765f8201612a705f88016120bd565b9061187c565b612a8f60018201612a89602088016129fb565b90612a26565b612aa860028201612aa2604088016120bd565b9061187c565b612ac160038201612abb606088016120bd565b9061187c565b612ada60048201612ad4608088016120bd565b9061187c565b612af360058201612aed60a088016120bd565b9061187c565b612b0c60068201612b0660c088016120bd565b9061187c565b019201612a46565b90610fcd565b565b90612b2691612a53565b565b90565b5f5260205f2090565b5490565b612b4181612b34565b821015612b5b57612b53600191612b2b565b910201905f90565b610629565b9081549168010000000000000000831015612b905782612b88916001612b8e95018155612b38565b9061193c565b565b6108f6565b916020612bb6929493612baf60408201965f83019061016e565b019061016e565b565b95949390929193612bc76117f1565b5042612bf0612bea612be56004612bdf818d906107ed565b01610973565b61182b565b9161016b565b1161310657612c0c600a612c0660048a906107ed565b016109c1565b612c1f612c196001610b46565b91610b46565b036130ea5783612c38612c32600261282f565b9161016b565b10156130ce5784612c51612c4b5f610f52565b9161016b565b11156130b257612c986020612c6e612c69600161103d565b61104a565b6370a0823190612c8d8792612c81610112565b9586948593849361105a565b8352600483016106dd565b03915afa9081156130ad575f9161307f575b50612cbd612cb78761016b565b9161016b565b1061306357612cd4612ccf600161103d565b61104a565b9163d505accf928491612ce630612878565b94889190612cf55f8701612898565b92612d0e6040612d0760208a016128b9565b98016128b9565b853b1561305e575f97612d35958995612d4094612d29610112565b9c8d9b8c9a8b9961105a565b8952600489016128e2565b03925af180156130595761302d575b50612d62612d5d600161103d565b61104a565b60206323b872dd918390612d925f612d7930612878565b95612d9d8a612d86610112565b9889978896879561105a565b85526004850161294a565b03925af1801561302857612ffc575b50612ddb5f612dd4612dcd6008612dc560048b906107ed565b01859061297c565b859061299b565b5001610258565b80612dee612de85f610f52565b9161016b565b145f14612f835750612e006003610258565b612e0981611847565b612e1490600361187c565b948582848684429142935f95612e286129c3565b975f890190612e36916129d1565b6020880190612e44916129df565b6040870190612e52916129d1565b6060860190612e60916129d1565b6080850190612e6e916129d1565b60a0840190612e7c916129d1565b60c0830190612e8a916129d1565b60e0820190612e98916129ed565b600587612ea491610229565b90612eae91612b1c565b600481612eba916107ed565b600701612ec690612b28565b86612ed091612b60565b600682612edc91610613565b612ee590612b28565b86612eef91612b60565b5b612f2884612f22612f106005612f08600487906107ed565b018790610ff6565b919092612f1d838561014e565b6111b0565b9161193c565b8590919293612f69612f63612f5d7f9ab6b286d532c308925cb0664fe6228b8fe0d5137820cc28dc0ec44f7a3959e39461020d565b9461020d565b94610607565b94612f7e612f75610112565b92839283612b95565b0390a4565b94612fc784612fc16003612fb0612fa96008612fa1600489906107ed565b01889061297c565b889061299b565b500191612fbc83610258565b6111b0565b9061187c565b612ff7426006612ff0612fe96008612fe1600488906107ed565b01879061297c565b879061299b565b500161187c565b612ef0565b61301c9060203d8111613021575b613014818361090a565b810190611083565b612dac565b503d61300a565b6110c4565b61304c905f3d8111613052575b613044818361090a565b8101906128c6565b5f612d4f565b503d61303a565b6110c4565b611056565b5f631e9acf1760e31b81528061307b6004820161049a565b0390fd5b6130a0915060203d81116130a6575b613098818361090a565b81019061285a565b5f612caa565b503d61308e565b6110c4565b5f631f2a200560e01b8152806130ca6004820161049a565b0390fd5b5f630d59bc4b60e21b8152806130e66004820161049a565b0390fd5b5f63050d584d60e21b8152806131026004820161049a565b0390fd5b5f633cae8da960e01b81528061311e6004820161049a565b0390fd5b6131339061312e6133c6565b613135565b565b8061315061314a6131455f6117af565b610337565b91610337565b146131605761315e90613414565b565b61318361316c5f6117af565b5f918291631e4fbdf760e01b8352600483016106dd565b0390fd5b61319090613122565b565b906131a49161319f6133c6565b61321b565b565b6131ba6131b56131bf926110f6565b61020a565b61016b565b90565b5f7f4265742063616e6e6f7420626520677261646564000000000000000000000000910152565b6131f66014602092610ac7565b6131ff816131c2565b0190565b6132189060208101905f8183039101526131e9565b90565b61322f61322a600483906107ed565b61189c565b61323b600a82016109c1565b61324e6132486001610b46565b91610b46565b0361339e574261327161326b61326660048501610973565b61182b565b9161016b565b10613382576132846002600a830161215c565b826132976132915f610f52565b9161016b565b145f146132f9576132b49060096132ad5f610f52565b910161187c565b5b6132f46132e27faf7faf29a251efa1bcf2b47dab1a72baa0906a2e4ff957e6cb6d4f7c642161ab9261020d565b926132eb610112565b9182918261017b565b0390a2565b8261330d61330760016131a6565b9161016b565b145f146133315761332b90600961332460016131a6565b910161187c565b5b6132b5565b8261334561333f600261282f565b9161016b565b145f146133605761335b90600a60019101612199565b61332c565b613368610112565b62461bcd60e51b81528061337e60048201613203565b0390fd5b5f63881dc35b60e01b81528061339a6004820161049a565b0390fd5b5f63050d584d60e21b8152806133b66004820161049a565b0390fd5b906133c491613192565b565b6133ce6117dc565b6133e76133e16133dc613473565b610337565b91610337565b036133ee57565b6134106133f9613473565b5f91829163118cdaa760e01b8352600483016106dd565b0390fd5b61341d5f610284565b613427825f612a26565b9061345b6134557f8be0079c531659141344cd1fd0a4f28419497f9722a3daafe3b4186f6b6457e093610607565b91610607565b91613464610112565b8061346e8161049a565b0390a3565b61347b6117d8565b50339056fea264697066735822122097d509c39509f2611b978c96a30b80fa49468fea236506348a14989c28caa12e64736f6c634300081c0033",
        "linkReferences": {}
    },
    "methodIdentifiers": {
        "BET_TYPEHASH()": "4d20d4bc",
        "PAYOUT_FEE_BP()": "be3f4ff2",
        "bets(uint256)": "22af00fa",
        "claimPayouts(uint256[])": "3d695c52",
        "createPool((string,string[2],uint40,uint40,string,string,string,string,string,string))": "9d5d2513",
        "gradeBet(uint256,uint256)": "ff0beb62",
        "nextBetId()": "9aca2792",
        "nextPoolId()": "18e56131",
        "owner()": "8da5cb5b",
        "placeBet(uint256,uint256,uint256,address,uint256,(uint8,bytes32,bytes32))": "e4747eb1",
        "pools(uint256)": "ac4afa38",
        "renounceOwnership()": "715018a6",
        "setTwitterPostId(uint256,string)": "bbd5e559",
        "transferOwnership(address)": "f2fde38b",
        "userBets(address,uint256)": "8068aa68"
    },
    "id": 40
}